:100000000C94832A0C94975F0C946C5F0C94415F62
:100010000C94165F0C94EB5E0C94C05E0C94955E91
:100020000C946A5E0C94B42A0C94B42A0C94B42AEE
:100030000C94B42A0C94B42A0C94B42A0C94B42AC8
:100040000C94B42A0C946E9E0C94B42A0C94B42A8A
:100050000C94B42A0C94B42A0C947B7C0C94205EEF
:100060000C94B42A0C944D450C94B42A0C94B42AE4
:100070000C94B42A0C94B42A0C94B42A0C94B42A88
:100080000C94B42A0C94B42A0C94B42A0C94B42A78
:100090000C94B42A0C94B42A0C94B42A0C94B42A68
:1000A0000C94B42A0C94B42A0C94B42A0C94B42A58
:1000B0000C94B42A0C94B42A0C94B42A0C94B42A48
:1000C0000C94B42A0C94B42A0C94B42A0C94B42A38
:1000D0000C94B42A0C94B42A0C94B42A0C94B42A28
:1000E0000C94B42AB55BB85BA75BAB5BB15BEF5B11
:1000F000BC5BC05BC65BCA5BCE5BD45BD85BDC5BC6
:10010000EF5BE25BE65BEA5B3C5D415D465D505D5B
:100110005A5DD35D645D6C5D745D7E5D885D925DEE
:10012000A15DAB5DD35DB55DBF5DC95DD97CE97C8B
:10013000087D187D337D387D3B7D407D437D487D46
:100140004B7D507D5A7D084AD73B3BCE016E84BC27
:10015000BFFDC12F3D6C74319ABD56833DDA3D0021
:10016000C77F11BED9E4BB4C3E916BAAAABE00006A
:1001700000803F05A84CCDB2D44EB93836A9020C48
:1001800050B9918688083CA6AAAA2ABE0000008021
:100190003F004E414E494E495459494E46CDCCCC74
:1001A0003D0AD7233C17B7D13877CC2B329595E64B
:1001B000241FB14F0A000020410000C84200401C2B
:1001C0004620BCBE4CCA1B0E5AAEC59D7400407A78
:1001D00010F35A00A0724E18090010A5D4E80000D0
:1001E000E87648170000E40B54020000CA9A3B006E
:1001F0000000E1F505000080969800000040420FE5
:10020000000000A08601000000102700000000E8A8
:1002100003000000006400000000000A000000006D
:10022000000100000000002C76D888DC674F08230E
:10023000DFC1DFAE59E1B1B796E5E3E453C63AE674
:1002400051997696E8E6C28426EB898C9B62ED4054
:100250007C6FFCEFBC9C9F40F2BAA56FA5F49005A3
:100260005A2AF75C936B6CF9676DC11BFCE0E40DD7
:1002700047FEF520E6B500D0ED902E0300943577CB
:10028000050080841E080000204E0A000000C80CF3
:10029000333333330F986E12831141EF8D2114895C
:1002A0003BE65516CFFEE6DB18D1844B381BF77CB6
:1002B0001D901DA4BBE424203284725E228100C9FB
:1002C000F124ECA1E53D2720746F6F206C6F6E6701
:1002D00020657874727573696F6E207072657665CB
:1002E0006E7465640020636F6C6420657874727549
:1002F00073696F6E2070726576656E746564004E0A
:100300006F206D6F76652E00456E642066696C65A2
:10031000206C69737400426567696E2066696C655C
:10032000206C697374005344207072696E74696E36
:1003300067206279746520004E6F742053442070EA
:1003400072696E74696E670046696C652064656CDD
:10035000657465643A0044656C6574696F6E206607
:1003600061696C65642C2046696C653A20006F7089
:10037000656E206661696C65642C2046696C653A1F
:1003800020002569206D696E2C2025692073656326
:100390000044454255472044525952554E20454E3F
:1003A00041424C4544004445425547204543484F4F
:1003B00020454E41424C4544004B494C4C45442E4F
:1003C00020002042403A0020403A00205400202FD4
:1003D00000202F0020423A00202F0020543A006FC6
:1003E0006B0048656174696E6720646F6E652E00EE
:1003F0003F0020573A0020453A00543A00486561D2
:1004000074696E672E2E2E0042656420646F6E65DF
:100410002E0020423A0020453A00543A00426564DA
:100420002048656174696E672E007777772E637850
:10043000737733642E636F6D007777772E637873ED
:100440007733642E636F6D204F66662E00464952E7
:100450004D574152455F4E414D453A4D61726C6971
:100460006E20312E312E302046726F6D2041726326
:100470006869766520534F555243455F434F444565
:100480005F55524C3A687474703A2F2F202E2E2EDE
:100490002050524F544F434F4C5F56455253494F93
:1004A0004E3A312E30204D414348494E455F545914
:1004B00050453A7777772E6378737733642E636F7E
:1004C0006D2045585452554445525F434F554E5444
:1004D0003A3120555549443A3030303030303030A0
:1004E0002D303030302D303030302D303030302D18
:1004F0003030303030303030303030300A00205A38
:100500003A0020593A0020436F756E7420583A2003
:100510000020453A00205A3A0020593A00583A0043
:100520007A5F6D696E3A2000795F6D696E3A2000DE
:10053000785F6D696E3A20004D31343520533C6947
:100540006E6465783E206F7574206F662072616EF0
:1005500067652028302D31290053657474696E67F2
:100560002054726176656C20416363656C657261CD
:1005700074696F6E3A200053657474696E67205217
:1005800065747261637420416363656C6572617444
:10059000696F6E3A200053657474696E67205072FB
:1005A000696E7420416363656C65726174696F6E16
:1005B0003A200053657474696E67205072696E74D6
:1005C00020616E642054726176656C2041636365BE
:1005D0006C65726174696F6E3A20004D3330302063
:1005E0005336353920503230300A4D3330302053B5
:1005F0003639382050323030004F666673657420CB
:100600006170706C6965642E004D33303020533456
:10061000302050323030004572723A20546F6F20D3
:100620006661722100546F6F206661722066726F7E
:100630006D207265666572656E636520706F696EA8
:100640007400220A00556E6B6E6F776E20636F6DBB
:100650006D616E643A2022004B494C4C45442E207B
:1006600000202D20496E76616C6964206578747273
:1006700075646572206E756D626572202100626915
:100680006E004D31313720494E56414C494420448B
:100690004154412E004D313137205072696E7469DA
:1006A0006E672E2E2E004730205A257300473238B1
:1006B000205830205930004730205A2573004739E0
:1006C00032205A2573204525730062696E00202070
:1006D000506C616E6E6572427566666572427974C1
:1006E00065733A20002046726565204D656D6F7216
:1006F000793A20004A756E20203820323031380097
:10070000436F6D70696C65643A20002843522D3147
:1007100030536C616E67756167652900207C2041EC
:100720007574686F723A2000323031352D31322DB8
:1007300030312031323A303000204C617374205512
:100740007064617465643A200020004D61726C69C8
:100750006E0020536F667477617265205265736511
:100760007400205761746368646F67205265736515
:1007700074002042726F776E206F7574205265731B
:100780006574002045787465726E616C20526573E3
:10079000657400506F776572557000737461727480
:1007A000006572726F722077726974696E67207467
:1007B0006F2066696C6500656E6473746F7073207A
:1007C0006869743A205A00205A3A00656E6473745E
:1007D0006F7073206869743A20590020593A006597
:1007E0006E6473746F7073206869743A20580020C7
:1007F000583A00656E6473746F7073206869743A58
:1008000020006F6B00446F6E6520736176696E67C0
:100810002066696C652E004D3239002200656E71CC
:1008200075657565696E67202200536C6565702E6D
:100830002E2E00526573756D696E67207072696E39
:1008400074007777772E6378737733642E636F6DD8
:10085000005761697420666F7220757365722E2E61
:100860002E004B64200023646566696E6520204479
:10087000454641554C545F004B6920002364656632
:10088000696E65202044454641554C545F004B70CD
:10089000200023646566696E652020444546415505
:1008A0004C545F00504944204175746F74756E65F7
:1008B0002066696E697368656421205075742074C0
:1008C0006865206C617374204B702C204B6920612B
:1008D0006E64204B6420636F6E7374616E7473205A
:1008E00066726F6D2062656C6F7720696E746F2021
:1008F000436F6E66696775726174696F6E2E68000A
:10090000504944204175746F74756E652066616945
:100910006C6564212074696D656F75740020403AC0
:1009200000543A00423A00504944204175746F74B3
:10093000756E65206661696C6564212054656D7013
:100940006572617475726520746F6F20686967687D
:1009500000204B643A2000204B693A2000204B7065
:100960003A200020436C617373696320504944202E
:10097000002054753A2000204B753A2000206D610C
:10098000783A2000206D696E3A200020643A2000F9
:1009900020626961733A20002E0A0046696C65285E
:1009A00062696E292064656C657465640044656CD9
:1009B0006574696F6E2862696E29206661696C656D
:1009C000640053442063617264206F6B006F706534
:1009D0006E526F6F74206661696C656400766F6C2F
:1009E000756D652E696E6974206661696C65640059
:1009F000534420696E6974206661696C004D32341D
:100A0000004D3233202573006175746F25692E67A0
:100A10000057726974696E6720746F2066696C652F
:100A20003A20002E0A006F70656E206661696C6561
:100A3000642C2046696C653A20002E0A0046696CD9
:100A4000652073656C6563746564002053697A651D
:100A50003A200046696C65206F70656E65643A20C7
:100A6000006F70656E206661696C65642C20466954
:100A70006C653A20006F70656E206661696C656414
:100A80002C2046696C653A20004E6F7720667265AF
:100A900073682066696C653A20004E6F7720646F3A
:100AA000696E672066696C653A20002220706F735A
:100AB000002220706172656E743A220053554252D2
:100AC0004F5554494E452043414C4C207461726748
:100AD00065743A22004B494C4C45442E20007472F8
:100AE00079696E6720746F2063616C6C2073756226
:100AF0002D67636F64652066696C65732077697420
:100B00006820746F6F206D616E79206C6576656CFE
:100B1000732E204D4158206C6576656C2069733AC0
:100B2000004572726F723A004572726F722077726E
:100B30006974696E6720746F20454550524F4D218E
:100B400000206279746573290053657474696E6757
:100B5000732053746F726564202800206279746575
:100B60007329002073746F726564207365747469EF
:100B70006E677320726574726965766564202800FB
:100B80006563686F3A002E0A006F70656E206661BB
:100B9000696C65642C2046696C653A20005772695F
:100BA00074696E6720746F2066696C653A20000076
:100BB000002100240027002A002D0030003300010E
:100BC000010000040107010A01000022002500289D
:100BD000002B002E00310034000201000005010846
:100BE000010B01000020002300260029002C002F0B
:100BF000003200000100000301060109010505059E
:100C000005070508080808020202020A0A08080483
:100C100004040401010101010101010303030303B1
:100C2000030303040707070C0C0C0C0C0C0C0C0240
:100C300002020206060606060606060B0B0B0B0B47
:100C40000B0B0B0102102020080810204010204040
:100C50008002010201080402010102040810204080
:100C6000808040201008040201800402018040209E
:100C700010080402010804020101020408102040C7
:100C800080010204081020408000000A0B02090CB9
:100C90000D0E080703040100000000000000000022
:100CA0000000000000000000000000000000000044
:100CB0000000000000121110000000000000000001
:100CC0000000000000000000000000000000004ED6
:100CD0006F004E6F004E6F005965730059657300C9
:100CE00059657300CCDFD8DDC4BBB2B6B23F00F4A7
:100CF000F5CAF33F00526573756D65207072696EB9
:100D0000743F005344B6B0C4DEBBB2D6D0BAD000F4
:100D1000496E69742E205344206361726400496EE9
:100D200069742E2053442063617264005344B6B04A
:100D3000C4DEB6DEB1D8CFBEDD00F9A8004E6F200C
:100D400053442063617264005344B6B0C4DEBAB346
:100D5000B6DD004368616E676520534420636172AD
:100D600064004368616E6765205344206361726468
:100D7000005344B6B0C4DEB6D7CCDFD8DDC40053D0
:100D800044A8CAF3005072696E742066726F6D20B9
:100D9000534400CCDFD8DDC4C3B2BC00F2F6CAF3C2
:100DA0000053746F70207072696E7400CCDFD8DDF0
:100DB000C4BBB2B6B200F4F5CAF300526573756DE8
:100DC00065207072696E7400B2C1BCDEC3B2BC0033
:100DD000F1F2CAF3005061757365207072696E7428
:100DE000004C616E6775616765004C616E67756187
:100DF0006765004C616E677561676500C1AEB3BE23
:100E0000B200CFF00054756E6500B2DDCCAB00ECE3
:100E1000EDEEEF00496E666F2073637265656E00DC
:100E2000B5B8D8D8AEB300CCADD1D200466C6F7790
:100E300000BDCBDFB0C4DE00D1D200537065656465
:100E400000B6C8C2C3B2BC00C8C900436F6F6C64AF
:100E50006F776E0041425320D6C8C200C3C4204100
:100E600042530050726568656174204142530050DE
:100E70004C4120D6C8C200C3C420504C410050721F
:100E8000656865617420504C4100CCA8D7D2DDC4A0
:100E9000BAB3B6DD009FE4E0E1004368616E6765C8
:100EA0002066696C616D656E7400D3B0C0B0C3DE3E
:100EB000DDB9DEDD20B5CC00B5B6B7B8B9BA0044AF
:100EC000697361626C65207374657070657273001C
:100ED000426564204175746F204C6576656C696E5F
:100EE0006700CFD000426564204175746F204C6567
:100EF00076656C696E6700B9DEDDC3DDC6B2C4DE3F
:100F0000B300BBBCBD004175746F20686F6D650098
:100F10004E6F0059657300526573756D6520707270
:100F2000696E743F004D323100496E69742E205352
:100F3000442063617264004E6F20534420636172E9
:100F400064004D3231004368616E67652053442070
:100F500063617264005072696E742066726F6D20F6
:100F600053440053746F70207072696E7400526540
:100F700073756D65207072696E740050617573656C
:100F8000207072696E74004C616E677561676500F0
:100F900054756E6500496E666F2073637265656E89
:100FA00000466C6F77005370656564004732380007
:100FB000436F6F6C646F776E005072656865617423
:100FC00020414253005072656865617420504C4165
:100FD000004368616E67652066696C616D656E745B
:100FE000004D38340044697361626C652073746528
:100FF000707065727300426564204175746F204C97
:101000006576656C696E67004175746F20686F6DF9
:1010100065004572723A204368616E6765204669D3
:101020006C616D656E74005072696E7420706175CC
:10103000736564004572723A204368616E6765208B
:1010400046696C616D656E74004730205A257300E7
:101050004D31303920532569004D3134302053252E
:1010600069004D3130362053323535004D3130393D
:1010700020532569004D3139302053256900000681
:101080000900FE070191032020FFFF08FF07FF0072
:1010900000000600000107070602008080808080B3
:1010A0000080030202060105A0A005070706000054
:1010B0005050F850F850500507070600002078A05F
:1010C0007028F020050707060000C0C810204098CF
:1010D000180507070600006090A040A8906802036A
:1010E00003060104C040800307070601002040807A
:1010F0008080402003070706010080402020204018
:101100008005050506000120A870A8200505050634
:1011100000012020F820200203030602FFC04080C7
:10112000050101060003F8020202060200C0C00524
:10113000050506000108102040800507070600008D
:10114000708898A8C8887003070706010040C0404F
:10115000404040E005070706000070880870808066
:10116000F8050707060000F81020100808F005072A
:101170000706000010305090F81010050707060011
:1011800000F880F008088870050707060000304066
:1011900080F0888870050707060000F808102020F6
:1011A0002020050707060000708888708888700571
:1011B0000707060000708888780810600205050699
:1011C0000200C0C000C0C00206060602FFC0C00088
:1011D000C040800407070600001020408040201017
:1011E000050303060002F800F80407070601008063
:1011F0004020102040800507070600007088081076
:1012000020002005060606000070880868A8700502
:101210000707060000708888F88888880507070691
:101220000000F08888F08888F00507070600007045
:10123000888080808870050707060000E090888815
:101240008890E0050707060000F88080F08080F8AD
:10125000050707060000F88080F0808080050707FA
:10126000060000708880B8888870050707060000AF
:10127000888888F8888888010707060200808080AF
:10128000808080800507070600003810101010903D
:10129000600507070600008890A0C0A09088050799
:1012A00007060000808080808080F8050707060020
:1012B0000088D8A8888888880507070600008888DD
:1012C000C8A898888805070706000070888888885D
:1012D0008870050707060000F08888F08080800588
:1012E000070706000070888888A890680507070629
:1012F0000000F08888F0A0908805070706000078B5
:101300008080700808F0050707060000F8202020FC
:1013100020202005070706000088888888888870B4
:101320000507070600008888888888502005070779
:101330000600008888888888A850050707060000EE
:10134000888850205088880507070600008888880C
:1013500050202020050707060000F80810204080D4
:10136000F8030707060100E08080808080E0050523
:10137000050600018040201008030707060100E071
:101380002020202020E005030306000420508805CB
:101390000101060000F80202020602058040050570
:1013A00005060000700878887805070706000080A9
:1013B00080B0C88888F00505050600007080808828
:1013C00070050707060000080868988888780505F2
:1013D000050600007088F8807005070706000030D9
:1013E00048E0404040400506060600FF70888878C7
:1013F00008700507070600008080B0C8888888014B
:1014000007070602008000808080808003080806AD
:1014100001FF200020202020A04004070706000034
:10142000808090A0C0A090030707060100C0404044
:10143000404040E0050505060000D0A8A8A8A80582
:101440000505060000B0C888888805050506000067
:1014500070888888700506060600FFF08888F0808E
:10146000800506060600FF788888780808050505C7
:10147000060000B0C8808080050505060000708069
:101480007008F00507070600004040E04040483083
:10149000050505060000888888986805050506008A
:1014A0000088888850200505050600008888A8A8BF
:1014B00050050505060000885020508805060606E0
:1014C00000FF888888780870050505060000F81078
:1014D0002040F803070706010020404080404020DC
:1014E0000107070602008080808080808003070754
:1014F00006010080404020404080050202060003B3
:1015000068900000000600000000000600000000D7
:1015100000060000000000060000000000060000B9
:1015200000000006000000000006000000000006A9
:10153000000000000006000000000006000000009F
:101540000006000000000006000000000006000089
:101550000000000600000000000600000000000679
:10156000000000000006000000000006000000006F
:101570000006000000000006000000000006000059
:101580000000000600000000000600000000000649
:10159000000000000006000000000006000000003F
:1015A0000006000000000006000000000006000029
:1015B0000000000600000000000600000000000619
:1015C0000000000000060000050303060002F8000A
:1015D000F8050606060000F8082830204005070731
:1015E000060000F808283020204004050506000009
:1015F000102060A02005070706000008102060A04A
:10160000202005050506000020F88808300507079A
:1016100006000020F8888808102005040406000051
:10162000F82020F8050606060000F820202020F803
:1016300005050506000010F8305090050707060064
:101640000010F8103050901005050506000040F815
:10165000485040050707060000280040F848504061
:1016600005070706000020F820F8202020050808BC
:10167000060000280020F820F820200406060600B6
:101680000040709010102005080806000028004057
:10169000709010102005060606000040789010108B
:1016A000200508080600002800407890101020054A
:1016B0000505060000F8080808F8050707060000F9
:1016C0002800F8080808F80507070600FF50F8503A
:1016D000501020400509090600FF280050F850501E
:1016E000102040050606060000C008C80810E005E6
:1016F00008080600002800C008C80810E005060613
:10170000060000F808102050880508080600002888
:1017100000F8081020508805060606000040F8482A
:10172000504078050808060000280040F84850405E
:101730007804040406000110D010E0050707060035
:1017400000280008C80810E00507070600FF2078F9
:1017500088281028400509090600FF2800207888FD
:1017600028102840050606060000F020F8204080DA
:101770000508080600002800F020F8204080040535
:1017800005060001C010D010E0050606060000C0E6
:1017900008C80810E00508080600002800C008C8AE
:1017A0000810E00506060600007000F8202040053D
:1017B000080806000028007000F8202040030707F2
:1017C000060100808080C0A0808004080806010017
:1017D00050008080C0A08080050707060000202000
:1017E000F82020408005060606000070000000007A
:1017F000F8050606060000F8085020508005070787
:101800000600FF20F808102070A803070706010053
:101810002020202020408005050506000010888833
:101820008888050707060000280010888888880532
:10183000080806000018180010888888880507071F
:101840000600008080F88080807805080806000087
:10185000288080F8808080780508080600001898A5
:1018600080F880808078050606060000F8080808E1
:1018700010600508080600002800F8080808106035
:101880000508080600001818F80808081060050583
:101890000506000140A010080805070706000128FA
:1018A0000040A0100808050707060001181840A00E
:1018B00010080805060606000020F82020A8A80544
:1018C0000808060000280020F82020A8A80508081D
:1018D000060000181820F82020A8A8050606060013
:1018E00000F80808502010040606060100E000E099
:1018F00000E01005060606000020408090F808056C
:10190000060606000008085020508005060606005E
:10191000007820F82020380507070600004040F82E
:101920004850404005070706000040F84850404036
:101930004005050506000070101010F805070706A1
:101940000000701010101010F8040505060100F0DA
:1019500010F010F0050707060000F80808F808085E
:10196000F80506060600007000F8081020030606B9
:10197000060100A0A0A0A020400506060600005019
:10198000505050589004060606010080808090A0B8
:10199000C0050606060000F8888888F88805050551
:1019A000060000F888081060050606060000F888A2
:1019B0000808106005060606000010F85050F810E0
:1019C000050606060000F808506040F80506060601
:1019D0000000F808F8081020050606060000804000
:1019E000080810E0050808060000280020F888080C
:1019F000182005060606000040F8484888900405AF
:101A00000506010080F0A020200508080600002837
:101A100000F8880808106005080806000028001073
:101A2000F85050F8100507070600002800F81020AD
:101A300020F80508080600002800F808F80810201B
:101A4000020202060202C0C0050101060003F805F9
:101A50000505060001804020100805060606000165
:101A6000288040201008050707060000F80808082D
:101A7000080808000C0B00FE070192032120FFFF5D
:101A80000AFF07FF00000006000A01070706020020
:101A900080808080800080030202060105A0A005EE
:101AA00007070600005050F850F850500507070689
:101AB00000002078A07028F020050707060000C06D
:101AC000C810204098180507070600006090A04045
:101AD000A89068020303060104C0408003070706BC
:101AE000010020408080804020030707060100801D
:101AF00040202020408005050506000120A870A890
:101B0000200505050600012020F820200203030619
:101B100002FFC04080050101060003F80202020630
:101B20000200C0C005050506000108102040800520
:101B30000707060000708898A8C888700307070682
:101B4000010040C040404040E0050707060000702B
:101B50008808708080F8050707060000F81020103C
:101B60000808F005070706000010305090F8101024
:101B7000050707060000F880F008088870050707C9
:101B8000060000708080F088887005070706000056
:101B9000F80810202020200507070600007088881C
:101BA0007088887005070706000070888878080824
:101BB00070020505060200C0C000C0C0020606068D
:101BC00002FFC0C000C040800407070600001020CC
:101BD0004080402010050303060002F800F80407C7
:101BE00007060000804020102040800507070600FF
:101BF0000070880810200020050707060000708884
:101C00000868A8A870050707060000708888F8888B
:101C10008888050707060000F08888F08888F005A6
:101C20000707060000708880808088700507070617
:101C30000000F08888888888F0050707060000F80B
:101C40008080F08080F8050707060000F88080F0AB
:101C5000808080050707060000708880B88888703B
:101C6000050707060000888888F888888801070724
:101C700006020080808080808080050707060000C3
:101C8000381010101090600507070600008890A01B
:101C9000C0A09088050707060000808080808080B3
:101CA000F805070706000088D8A8888888880507EF
:101CB000070600008888C8A89888880507070600D6
:101CC0000070888888888870050707060000F088FB
:101CD00088F080808005070706000070888888A843
:101CE0009068050707060000F08888F0A090880536
:101CF0000707060000788080700808F005070706CF
:101D00000000F8202020202020050707060000887A
:101D10008888888888700507070600008888888872
:101D20008850200507070600008888888888A85002
:101D30000507070600008888502050888805070797
:101D4000060000888888502020200507070600002C
:101D5000F80810204080F8030707060000E08080A4
:101D6000808080E005050506000180402010080302
:101D70000707060000E02020202020E005030306DE
:101D80000004205088050101060000F80202020646
:101D90000205804005050506000070087888780572
:101DA00007070600008080B0C88888F00505050692
:101DB000000070808088700507070600000808682A
:101DC000988888780505050600007088F8807005F9
:101DD00007070600003048E0404040400506060680
:101DE00000FF70888878087005070706000080806B
:101DF000B0C88888880107070602008000808080BC
:101E000080800308080601FF200020202020A04039
:101E1000040707060100808090A0C0A09003070778
:101E2000060100C04040404040E0050505060000B6
:101E3000D0A8A8A8A8050505060000B0C88888880D
:101E400005050506000070888888700506060600EE
:101E5000FFF08888F080800506060600FF788888F5
:101E6000780808050505060000B0C88080800505D3
:101E70000506000070807008F004070706000040A7
:101E800040E04040403005050506000088888898FD
:101E900068050505060000888888502005050506A8
:101EA00000008888A8A85005050506000088502075
:101EB00050880506060600FF8888887808700505A2
:101EC00005060000F8102040F8030707060100206F
:101ED000404080404020010707060200808080804B
:101EE000808080030707060100804040204040803A
:101EF000050202060003689000000006000A0000C8
:101F0000000C000A0000000C000A0000000C000A8F
:101F10000000000C000A0000000C000A0000000C89
:101F2000000A0000000C000A0000000C000A00007B
:101F3000000C000A0000000C000A0000000C000A5F
:101F40000000000C000A0000000C000A0000000C59
:101F5000000A0000000C000A0000000C000A00004B
:101F6000000C000A0000000C000A0000000C000A2F
:101F70000000000C000A0000000C000A0000000C29
:101F8000000A0000000C000A0000000C000A00001B
:101F9000000C000A0000000C000A0000000C000AFF
:101FA0000000000C000A0000000C000A0B0B160CCD
:101FB00000FF8FC048404FC00840CFC048004B4092
:101FC00048804E40B0008FE00B0B160C00FF204005
:101FD000AA4071402040FA4031406840A1E0AE4044
:101FE000204020400B0B160C00FF20002000FDE0DD
:101FF00025202520252025202520452045E0992045
:102000000B0B160C00FF03C0FC0004007FC0040093
:102010000400FFE00400040004001C000B0B160C7D
:1020200000FF00000000000000000040FFE0000092
:1020300000000000000000000B0B160C00FF004029
:10204000FFE00400040007000480044004000400D2
:10205000040004000B0B160C00FF240024002FE0EA
:10206000B400A480A4A0AAC02080288029403240C7
:102070000B0B160C00FF04808FE0490019002FC0E5
:10208000090009002FC0490089000FE00B0B160C56
:1020900000FF10003F8051000E003180C0603F8083
:1020A00024803F8024803F800B0B160C00FF228091
:1020B000FA4007E0FA808A808A80FA802280B28023
:1020C000AAA064E00B0B160C00FF22204740928070
:1020D000EFE0220047C0EC4007C03440C7C00440D6
:1020E0000B0B160C00FF08000FC008000800FFE0F3
:1020F00008000E0009800840080008000A0B160CB2
:1021000000FFFF800080008080808080FF80800052
:102110008000804080407FC00B0B160C00FF47C042
:102120004100EFE0410045006960C9204D60492051
:102130004FE0C8200B0B160C00FF08000400040041
:102140000A000A000A00110011002080404080208F
:102150000B0B160C00FF22402200F7E0220023E0C8
:102160003520E52025402880294072200B0A140CD8
:1021700000004440444044407FC0040004008420E8
:1021800084208420FFE00B0B160C00FF04000000ED
:102190007FC00400040004007FC0040004000400A9
:1021A000FFE00B0B160C00FFFFE0110001C0FE006A
:1021B000488025000400FFE015002480C4600B0B5C
:1021C000160C00FF11007FC044407FC044407FC018
:1021D0000400FFE0040004000400090B160C00FFDB
:1021E0001000FF8080808080FF8080808080FF8062
:1021F00080808080FF800B0B160C00FF71000100B7
:1022000003E0F9202120412051208920FA200220DA
:1022100004C00B0B160C00FF7FC011001100110051
:102220001100FFE0110011002100210041000B0B03
:10223000160C00FF21002200F44057E0502057C048
:1022400094405440244057C094400B0B160C00FFA0
:1022500011000A007FC004000400FFE004000A002F
:1022600011002080C0600A0B160C00FF5FC0004008
:1022700084408440BF4084408C409440A4408C40C3
:1022800081C00B0B160C00FF240027C02400240083
:10229000FFE000001440248047000C0070000B0B8E
:1022A000160C00FF248004800FC0E48024803FE0EF
:1022B00024802480288050008FE00B0B160C00FF38
:1022C00008000800FF8088808880FF8088808880E0
:1022D000FFA0882007E00B0B160C00FF278024804E
:1022E000F480248074806C80A480248024A028A0A2
:1022F00030600A0B160C00FFFFC0804080409E40FB
:10230000924092409E4080408040FFC080400B0B36
:10231000160C00FF7FC044005FC050405FC05040BB
:102320005FC042004A805240A6200B0B160C00FFF3
:10233000040007E004007FC04040404040407FC0B0
:102340000000524089200B0B160C00FF47802480B0
:1023500004800480E86020002FC0244022803100E7
:1023600026C00B0B160C00FF7FC04A407FC0040044
:10237000FFE004003F80208024802480FFE00B0BDE
:10238000160C00FF22004FE048204FE0C8004FE04D
:102390004AA05AA06FE04AA048600B0B160C00FF41
:1023A000F3C024402A80F100228065E07220A5401D
:1023B000208023002C000B0B160C00FF0400FFE014
:1023C00080200000FFE00400240027C02400540007
:1023D0008FE00B0B160C00FF73E01080510023E020
:1023E000FA202AA022A022A02080214062200B0BEC
:1023F000160C00FF2200F78022803680E2A025A084
:10240000246068200000524089200B0B160C00FF4E
:1024100073C0420042007BE04A404A407A404A4052
:102420004240444088400B0B160C00FF0800FFE0C0
:1024300008001FC030405FC090401FC010401040D7
:1024400010C00B0B160C00FF02007FE042004200A0
:102450005FC0420047004A805240622082000B0B5E
:10246000160C00FFF3C096409180A660A10097C0B3
:1024700091009500E7E0810081000B0B160C00FF36
:102480000F8088804F8008808F8040001FC03540BB
:10249000554095403FE00B0B160C00FF27E02080D5
:1024A000F880208020803880E0802080208020807C
:1024B00061800B0B160C00FF1FE0910057C0144009
:1024C00017C0944057C011005540992023000B0BB2
:1024D000160C00FF208027E0F240218022403420AB
:1024E000E24022402240224064400B0B160C00FFC9
:1024F000410041004FE0E920492049206FE0C92018
:1025000049204920CFE00B0B160C00FF2100F10001
:102510004FE0A920F9202FE03920E92029202FE0E1
:1025200028200B0B160C00FF8FE049200920CBA0C0
:1025300049204FE048204BA04AA06BA050E00B0B75
:10254000160C00FF7FC00400444024402480040097
:10255000FFE004000400040004000B0B160C00FF55
:10256000820042001FE0C2005FC052405FC04700CF
:102570004A805240BFE00B0B160C00FF04007FE0C6
:1025800048807FE048804F8040005FC048404780DF
:1025900098600B0B160C00FF0100EFE0A100A440B7
:1025A000AFE0A440AFE0A920E92002800C600B0B53
:1025B000160C00FF14C0F6A0BC60A780A880BFE086
:1025C000A920EFE009200FE009200B0B160C00FFFB
:1025D0007F8040804280628054804880488054A040
:1025E00062A0406080200B0B160C00FF04007FE00F
:1025F00040207FE040007DE054204CA0546064A067
:102600008D600B0B160C00FF82005FE00400084099
:102610009FE040200A800A804AA092A022600B0B13
:10262000160C00FF41004FE0E82042804440682043
:10263000C7C0410041004100CFE00B0B160C00FF6A
:1026400050207D209120FF2011207D2055205520F5
:1026500054205C2010E00B0B160C00FF3F80208004
:102660003F802080FFE048007BC04940794048809F
:10267000FB600B0B160C00FF040004000400248018
:102680002440444044208420040004001C000B0B20
:10269000160C00FF040004000400FFE004000A0020
:1026A0000A00110011002080C060090A140A00000D
:1026B000888049000800FF80008000807F800080C3
:1026C0000080FF800B0B160C00FF21001200FFE0C2
:1026D000000078804A807A804A807A8048805980D9
:1026E0000B0B160C00FF27C000000000EFE02100DC
:1026F000220024402FE0202050008FE00B0B160C0E
:1027000000FF20802700F90021C077002100F9E0B8
:1027100027007120A92020E00B0B160C00FF1040B1
:102720001040FDE0104038C0354052409440104009
:10273000104010C00B0B160C00FF0040F8400BE0DF
:10274000084088405240514021405040484089C094
:102750000A0B160C00FF840084408480F50086007C
:10276000840084009400A440C44083C00B0B160C6A
:1027700000FF11207D001100FFE02900FD404940CD
:102780007C8008A0FD600A200B0B160C00FF17C010
:102790002440244067C0A1002FE021002380254071
:1027A000292021000B0B160C00FF0800FFE0100091
:1027B00027C020806100AFE021002100210023001C
:1027C0000B0B160C00FF24002FE0B400A480A4A083
:1027D000AAC02A8028802940324024200B0B160CE6
:1027E00000FF7FE080003FC020403FC010001FC0BE
:1027F00010402880470038E00B0B160C00FF7FE0EC
:1028000040004000400040004000400040004000C8
:10281000400080000B0B160C00FFFFE004007FC09F
:1028200044407FC044407FC0440024001800E7E0DB
:102830000B0B160C00FF11E0FD00450029E0FD40E8
:1028400011407D4011405540924034400B0B160C16
:1028500000FF21005FE04000CFC040004FC04000BB
:102860004FC048404FC048400B0B160C00FF0400FF
:102870007FC040407FC040407FC040407FC0044098
:102880005220BFA00B0B160C00FF7FC044407FC03E
:1028900044407FC004001B00E0E011001100610013
:1028A0000B0B160C00FFFFE0040008007FE049203E
:1028B0004F2049204F20492049207FE00B0B160C68
:1028C00000FFFDE056407940388055409220FFE0FF
:1028D000040027C02400FFE00B0B160C00FFFB8058
:1028E00052007BE01240FA4014403F8020803F803D
:1028F00020803F800B0B160C00FF1FE0200027C03C
:102900006440A7C020002FE0282027C0210023001A
:102910000B0B160C00FFF3E082208220FA208220AD
:1029200082208A20B220C2E0020002000B0B160CAB
:1029300000FF248046A095C0E48027E04480F5C0D5
:1029400006A03480C48007E00B0B160C00FF27C0E4
:10295000410087E0E02022804580F2800FE0308057
:10296000C14002200B0B160C00FF020002002200E7
:1029700023C0220022002200220022002200FFE0C9
:10298000090B160C00FF03E04000BF403FC0204091
:102990003FC010003FC050800F0070E00B0B160CC2
:1029A00000FF04004440444044407FC00400040051
:1029B000842084208420FFE00B0B160C00FF7FC0D6
:1029C000040004000400FFE00A000A0012002220B4
:1029D000422081E00B0B160C00FF00007FE040005E
:1029E00040004000400040004000400040004000E7
:1029F0000B0B160C00FF4780248004800480E860E5
:102A000020002FC024402280310022800B0B160CA6
:102A100000FF7FC04A407FC00400FFE004003F8009
:102A2000208020802480FFE00B0B160C00FF0400A8
:102A3000040004007FC04440444044407FC0444000
:102A4000040004000B0B160C00FF08000400FFE05C
:102A500020802080110011000A0004000A0071C0CB
:102A60000B0B160C00FF140027E02A006200A3C025
:102A70002200220023E022002200220000000000A9
:102A80000000000000000000000000000000000046
:102A90000000000000000000000000000000000036
:102AA0000000000000000000000000000000000026
:102AB0000000000000000000000000000000000016
:102E60000000000000060900FE070192032120FF78
:102E7000FF08FF07FF000000060000010707060229
:102E80000080808080800080030202060105A0A0EF
:102E90000507070600005050F850F8505005070786
:102EA0000600002078A07028F02005070706000023
:102EB000C0C810204098180507070600006090A0C1
:102EC00040A89068020303060104C040800307077E
:102ED0000601002040808080402003070706010093
:102EE0008040202020408005050506000120A870B4
:102EF000A8200505050600012020F8202002030374
:102F00000602FFC04080050101060003F80202022C
:102F1000060200C0C005050506000108102040801B
:102F200005070706000070888888888870030707EF
:102F300006010040C040404040E005070706000091
:102F4000708808708080F8050707060000F81020D8
:102F5000100808F005070706000010305090F81020
:102F600010050707060000F880F0080888700507BC
:102F700007060000708080F088887005070706004B
:102F800000F80810202020200507070600007088A0
:102F900088708888700507070600007088887808A0
:102FA0000870020505060200C0C000C0C002060687
:102FB0000602FFC0C000C0408004070706000010E2
:102FC000204080402010050303060002F800F804AA
:102FD00007070601008040201020408005070706F3
:102FE0000000708808102000200507070600007008
:102FF000880868A8A870050707060000708888F888
:10300000888888050707060000F08888F08888F01F
:103010000507070600007088808080887005070714
:10302000060000F08888888888F0050707060000F9
:10303000F88080F08080F8050707060000F880809F
:10304000F0808080050707060000708880B88888B7
:1030500070050707060000888888F88888880107B7
:1030600007060200808080808080800507070600B8
:1030700000381010101090600507070600008890B7
:10308000A0C0A0908805070706000080808080808F
:1030900080F805070706000088D8A8888888880572
:1030A00007070600008888C8A898888805070706CB
:1030B000000070888888888870050707060000F07F
:1030C0008888F0808080050707060000708888885F
:1030D000A89068050707060000F08888F0A090888F
:1030E000050707060000788080700808F0050707CC
:1030F000060000F8202020202020050707060000F9
:10310000888888888888700507070600008888886E
:10311000888850200507070600008888888888A8C6
:10312000500507070600008888502050888805074A
:103130000706000088888850202020050707060021
:1031400000F80810204080F8030707060100E0801F
:1031500080808080E0050505060001804020100881
:10316000030707060100E02020202020E0050303DC
:10317000060004205088050101060000F802020242
:10318000060205804005050506000070087888786D
:103190000507070600008080B0C88888F00505058F
:1031A0000600007080808870050707060000080888
:1031B00068988888780505050600007088F8807092
:1031C0000507070600003048E0404040400506067D
:1031D0000600FF70888878087005070706000080E1
:1031E00080B0C888888801070706020080008080B8
:1031F0008080800308080601FF200020202020A0F6
:1032000040040707060000808090A0C0A09003073C
:1032100007060100C04040404040E00505050600AB
:1032200000D0A8A8A8A8050505060000B0C8888891
:103230008805050506000070888888700506060662
:1032400000FFF08888F080800506060600FF788879
:1032500088780808050505060000B0C8808080054C
:10326000050506000070807008F0040707060000DE
:103270004040E04040403005050506000088888851
:103280009868050505060000888888502005050512
:103290000600008888A8A85005050506000088508B
:1032A0002050880506060600FF8888887808700583
:1032B0000505060000F8102040F803070706010086
:1032C00020404080404020010707060200808080A7
:1032D0008080808003070706010080404020404036
:1032E000800502020600026890000000060000004F
:1032F00000000600000000000600000000000600BC
:1033000000000000060000000000060000000000B1
:10331000060000000000060000000000060000009B
:10332000000006000000000006000000000006008B
:103330000000000006000000000006000000000081
:10334000060000000000060000000000060000006B
:10335000000006000000000006000000000006005B
:103360000000000006000000000006000000000051
:10337000060000000000060000000000060000003B
:10338000000006000000000006000000000006002B
:103390000000000006000000000006000000000021
:1033A000060000000000060000000000060000000B
:1033B00000000600000107070602008000808080F0
:1033C00080800507070600002070A8A0A8702005CF
:1033D0000707060000304040E04050A805050506FC
:1033E000000088705070880507070600008850208C
:1033F000F820F82001070706020080808000808006
:1034000080050808060000304820505020906003D6
:103410000101060107A0050707060000F888B8B8F3
:10342000B888F8050707060001700878887800F862
:103430000505050600012850A050280503030600D5
:1034400001F8080802020206020640800507070686
:103450000000F888A88898A8F8050101060006F879
:10346000040404060003609090600507070600004E
:103470002020F8202000F8040505060003609020B5
:1034800040F0030505060003E020E020E002020210
:1034900006020640800508080600FF88888888988C
:1034A000E8808005070706000078989878181818B3
:1034B000020202060202C0C00202020602FF4080AF
:1034C00003050506000340C04040E005070706006D
:1034D00001708888887000F8050505060001A05075
:1034E0002850A00507070600008890A858B80808CB
:1034F0000507070600008890B84898203805080896
:10350000060000C040C048D8380808050707060074
:103510000020002040808870050808060000402038
:10352000007088F8888805080806000010200070E0
:1035300088F888880508080600002050007088F880
:1035400088880508080600006890007088F8888858
:103550000508080600005000708888F8888805086B
:10356000080600002050207088F8888805070706A4
:1035700000003860A0B8E0A0B80508080600FF7099
:1035800088808088702060050808060000402000C0
:10359000F880F080F8050808060000081000F880A0
:1035A000F080F8050808060000205000F880F08040
:1035B000F80507070600005000F880F080F80308BF
:1035C00008060100804000E0404040E00308080693
:1035D0000100204000E0404040E0030808060100F0
:1035E00040A000E0404040E0030707060100A000C3
:1035F000E0404040E0050707060000704848E84802
:10360000487005080806000068900088C8A89888D7
:103610000508080600004020708888888870050822
:103620000806000010207088888888700508080641
:103630000000205000708888887005080806000087
:10364000689000708888887005080806000050009F
:10365000708888888870050505060001885020500C
:10366000880508080600FF1070A8A8A8A8704005E3
:1036700008080600004020888888888870050808A7
:1036800006000010208888888888700508080600D1
:1036900000205000888888887005080806000050BF
:1036A000008888888888700508080600001020882F
:1036B00050202020200509090600FFC0407048481E
:1036C000704040E00408080601FF609090A09090D0
:1036D000E08005080806000040200070087888781F
:1036E0000508080600001020007008788878050892
:1036F0000806000020500070087888780508080641
:1037000000006890007008788878050707060000B8
:1037100050007008788878050808060000205020BE
:103720007008788878050606060000D02878A0A8DA
:10373000500506060600FF708088702060050808A6
:103740000600004020007088F88070050808060018
:10375000001020007088F88070050808060000201E
:1037600050007088F8807005070706000050007050
:1037700088F8807003080806010080400040C040BF
:1037800040E003080806010020400040C04040E03F
:1037900003080806010040A00040C04040E00307C5
:1037A00007060100A00040C04040E00507070600F2
:1037B00000A040A0107888700508080600006890F6
:1037C00000B0C888888805080806000040200070FE
:1037D0008888887005080806000010200070888816
:1037E00088700508080600002050007088888870DE
:1037F0000508080600006890007088888870050732
:1038000007060000500070888888700505050600CE
:10381000012000F800200507070600FF1070A8A887
:10382000A870400508080600004020008888889895
:103830006805080806000010200088888898680538
:103840000808060000205000888888986805070747
:10385000060000500088888898680509090600FF5E
:10386000102000888888F808700407070601FFC048
:103870004060506040E00508080600FF500088885E
:1038800088780870626564002C2073797374656DA4
:103890002073746F7070656421204865617465726F
:1038A0005F49443A200070012C0190012701B001CA
:1038B0002201C0011D01F0011801100213013002A4
:1038C0000E016002090190020401C002FF00000322
:1038D000FA004003F5008003F000D003EB00200461
:1038E000E6007004E100E004DC004005D700C005FC
:1038F000D2004006CD00D006C8008007C3003008C3
:10390000BE00F008B900C009B400B00AAF00B00BA7
:10391000AA00D00CA500000EA000500F9B00C01004
:1039200096005012910000148C00C0158700B0174B
:103930008200B0197D00D01B7800001E730040206B
:103940006E0090226900F024640040275F009029F7
:103950005A00E02B5500102E500020304B00103242
:103960004600E033410090353C0010373700703896
:103970003200A0392D00B03A2800A03B2300603C63
:103980001E00103D1900903D1400103E0F00703EC7
:103990000A00C03E0500003F0000544845524D411A
:1039A0004C2052554E4157415900546865726D6123
:1039B0006C2052756E61776179004572723A204DC4
:1039C000415854454D50004D415854454D50207478
:1039D0007269676765726564004572723A204D4985
:1039E0004E54454D50004D494E54454D5020747233
:1039F00069676765726564004572723A204D494E89
:103A000054454D5020424544004D494E54454D507B
:103A100020747269676765726564004572723A2046
:103A20004D415854454D5020424544004D41585455
:103A3000454D5020747269676765726564000000C7
:103A40000000000000000000000000000000000076
:103A50000000000000000000000000000000000066
:103A60000000000000000000000000000000000056
:103A70000000000000000000000000000000000046
:103A80000000000000000000000000000000000036
:103A90000000000000000000000000000000000026
:103AA0000000000000000000000000000000000016
:103AB0000000000000000000000000000000000006
:103AC00000000000000000000000000000000000F6
:103AD00000000000000000000000000000000000E6
:103AE00000000000000000000000000000000000D6
:103AF00000000000000000000000000000000000C6
:103B000000000000000000000000000000000000B5
:103B100000000000000000000000000000000000A5
:103B20000000000000000000000000000000000095
:103B30000000000000000000000000000000000085
:103B40000000000000000000000000000000000075
:103B50000000000000000000000000000000000065
:103B60000000000000000000000000000000000055
:103B70000000000000000000000000000000000045
:103B80000000000000000000000000000000000035
:103B90000000000000000000000000000000000025
:103BA0000000000000000000000000000000000015
:103BB000000000000C0000000000007C000001FC80
:103BC000000000007C038000000000C63F80031C52
:103BD000000000000C038030000000C318C0060C79
:103BE000000000000C000030000000C31860060C4C
:103BF000000000000C0000300000000318300C0032
:103C0000F787C1F80C0780FE3DE0000618300C0075
:103C10003D8C630C0C01803018C0001E18300C0065
:103C20003818330C0C0180300D80000318300C0064
:103C30003018303C0C0180300D80000198300C00B1
:103C4000301FF1EC0C0180300D80000198300C0C1D
:103C50003018030C0C018030078000C19830060C2E
:103C60003018330C0C018030070000C19860071831
:103C7000300C631F0C018033030000C318C001F037
:103C8000FC07C1FF7F87E01E0300007E3F8000002D
:103C9000000000000000000006000000000000001E
:103CA00000000000000000001E00000000000000F6
:103CB00000000000000000001C00000000000000E8
:103CC00000000000000000000000000000000000F4
:103CD00000000000000000000000000000000000E4
:103CE00000000000000000000000000000000000D4
:103CF00000000000000000000000000000000000C4
:103D000000000000000000000000000000000000B3
:103D100000000000000000000000000000000000A3
:103D20000000000000000000000000000000000093
:103D30000000000000000000000000000000000083
:103D40000000000000000000000000000000000073
:103D50000000000000000000000000000000000063
:103D60000000000000000000000000000000000053
:103D70000000000000000000000000000000000043
:103D80000000000000000000000000000000000033
:103D90000000000000000000000000000000000023
:103DA0000000000000000000000000000000000013
:103DB0000000000000000000000000000000000003
:103DC00000000000000000000000000000000000F3
:103DD00000000000000000000000000000000000E3
:103DE00000000000000000000000000000000000D3
:103DF00000000000000000000000000000000000C3
:103E000000000000000000000000000000000000B2
:103E100000000000000000000000000000000000A2
:103E20000000000000000000000000000000000092
:103E3000000000000000000000000000000000067C
:103E40000900FE000000000001090008FE00000556
:103E5000080806000040F0C888889878100508080F
:103E6000060000C0F88888888888F80505050600DF
:103E7000012030F830200508080600002070F820E6
:103E8000202020E00509090600FF2070A8A8B888B6
:103E90008870200509090600FFE080C0B0A828301E
:103EA00028280509090600FFF8A88888888888A8B6
:103EB000F8050A0A0600FE205050505088A8A8882D
:103EC0007003030306000340A040B4B8BDC4D9B0DA
:103ED000C0DEB000CCADBA0045787472756465720E
:103EE000005ABCDEB820B2C4DEB300C1B2205A0012
:103EF0004D6F7665205A0059BCDEB820B2C4DEB3DF
:103F000000C1B22059004D6F766520590058BCDEC3
:103F1000B820B2C4DEB300C1B22058004D6F766540
:103F2000205800BCDEB8B2C4DEB300C1B2CE004D32
:103F30006F7665206178697300302E316D6D20B227
:103F4000C4DEB300C1B220302E316D6D004D6F76EE
:103F50006520302E316D6D002020316D6D20B2C492
:103F6000DEB300C1B220316D6D004D6F766520313A
:103F70006D6D002031306D6D20B2C4DEB300C1B272
:103F80002031306D6D004D6F76652031306D6D00E4
:103F9000556E4C6F6164009D9E00556E4C6F616460
:103FA000004C6F616400B89E004C6F6164004E6508
:103FB0007874205374657000A2A1B7004E657874C0
:103FC000205374657000BCDEADDDCBDEBEAFC3B286
:103FD00000A4A5005072657061726500BEAFC3B2E7
:103FE000D8BEAFC400A3F7F8FAFBFC0052657374A7
:103FF0006F7265206661696C7361666500D2D3D8A3
:10400000B6D7D6D0BAD0004C6F6164206D656D6FA5
:104010007279004C6F6164206D656D6F727900D2AA
:10402000D3D8CDB6B8C9B30053746F7265206D652F
:104030006D6F72790053746F7265206D656D6F726C
:104040007900B3BADEB7BEAFC3B200DFB2004D6FC6
:1040500074696F6E00B5DDC4DE00C9D20054656DB1
:104060007065726174757265004368696E65736529
:1040700000FDFE004368696E65736500456E676C00
:1040800069736800456E676C69736800456E676C9C
:104090006973680045787472756465720045787458
:1040A0007275646572004D6F7665205A004D6F76AB
:1040B000652059004D6F76652058004D6F7665205C
:1040C00061786973004D6F766520302E316D6D001B
:1040D0004D6F766520316D6D004D6F766520313006
:1040E0006D6D004731204631353020453135300087
:1040F0004D31303920533230350047393220204598
:1041000030004731204631353020452D31353000E3
:104110004D31303920533230350047393220204577
:104120003000556E4C6F6164004C6F616400473124
:104130002046323030205A3300473120463230306A
:10414000205A2D3300473120583135302059313530
:104150003020463530303000473120463230302074
:104160005A330047312046323030205A2D33004731
:104170003120593330204635303030004731204629
:10418000323030205A330047312046323030205A06
:104190002D3300473120583237302046353030300B
:1041A0000047312046323030205A33004731204614
:1041B000323030205A2D33004731205932373020E9
:1041C00046353030300047312046323030205A33C7
:1041D0000047312046313030205A2D3300473120FE
:1041E000583330205933302046353030300047398D
:1041F000300047312046313030205A333B004732BF
:1042000038205830205930205A30004E65787420BC
:104210005374657000507265706172650052657309
:10422000746F7265206661696C73616665004C6FBE
:104230006164206D656D6F72790053746F726520D3
:104240006D656D6F7279004D6F74696F6E005465A6
:104250006D7065726174757265004368696E65732F
:104260006500456E676C69736800CCA7DDBFB8C494
:10427000DE00D5D6D1D20046616E207370656564CC
:1042800000CDDEAFC4DE00C4C70042656400C9BD16
:10429000DED900D3D4004E6F7A7A6C650045737412
:1042A0006570732F6D6D004573746570732F6D6D40
:1042B000004573746570732F6D6D005A737465706B
:1042C000732F6D6D005A73746570732F6D6D005A86
:1042D00073746570732F6D6D005973746570732FEF
:1042E0006D6D005973746570732F6D6D0059737423
:1042F0006570732F6D6D005873746570732F6D6DDD
:10430000005873746570732F6D6D00587374657009
:10431000732F6D6D00412D74726176656C00412DB7
:1043200074726176656C00412D74726176656C0003
:10433000412D7265747261637400412D72657472EF
:1043400061637400412D7265747261637400416D24
:104350006178206500416D6178206500416D61786C
:10436000206500416D6178207A00416D6178207A86
:1043700000416D6178207A00416D617820790041BB
:104380006D6178207900416D6178207900416D611F
:1043900078207800416D6178207800416D61782047
:1043A00078005654726176206D696E0056547261C1
:1043B00076206D696E005654726176206D696E00CC
:1043C000566D696E00566D696E00566D696E0056C9
:1043D0006D6178206500566D6178206500566D61CD
:1043E00078206500566D6178207A00566D617820DE
:1043F0007A00566D6178207A00566D6178207900D8
:10440000566D6178207900566D6178207900566D7F
:104410006178207800566D6178207800566D61785B
:1044200020780056652D6A65726B0056652D6A65A9
:10443000726B0056652D6A65726B00567A2D6A653F
:10444000726B00567A2D6A65726B00567A2D6A651A
:10445000726B005678792D6A65726B005678792DEB
:104460006A65726B005678792D6A65726B00B6BF0B
:10447000B8C4DE00416363656C00416363656C0032
:10448000BADDC4DBB0D900D8D900436F6E74726F47
:104490006C0046616E20737065656400426564005F
:1044A0004E6F7A7A6C65004573746570732F6D6D0D
:1044B000005A73746570732F6D6D00597374657055
:1044C000732F6D6D005873746570732F6D6D00419F
:1044D0002D74726176656C00412D72657472616332
:1044E0007400416D6178206500416D6178207A002B
:1044F000416D6178207900416D61782078005654D3
:10450000726176206D696E00566D696E00566D6140
:1045100078206500566D6178207A00566D617820AC
:104520007900566D617820780056652D6A65726B4A
:1045300000567A2D6A65726B005678792D6A65721D
:104540006B00416363656C00436F6E74726F6C0047
:104550007C3C3E5E2B3D3F2F5B5D3B2C2A225C006A
:1045600020496E76616C6964206578747275646543
:1045700072200000009B4300009B430000CD4300DD
:10458000000000000000000000000000000000002B
:10459000000000000000005761726E696E673A20EB
:1045A000486F6D696E672042756D70204469766949
:1045B000736F72203C2031000000A0400000A0403A
:1045C0000000004000009B4300009B430000CD43DF
:1045D000FFFFFF4D383420582059205A2045002530
:1045E0006920686F757273202569206D696E757416
:1045F000657300446F6E65207072696E74696E67D2
:104600002066696C65004B494C4C45442E20005394
:10461000544F505045442E20005072696E7465729C
:104620002073746F707065642064756520746F20EA
:104630006572726F72732E204669782074686520E7
:104640006572726F7220616E6420757365204D39DA
:10465000393920746F20726573746172742E20284A
:1046600054656D706572617475726520697320722E
:10467000657365742E2053657420697420616674B7
:1046800065722072657374617274696E6729004E79
:104690006F204C696E65204E756D6265722077697A
:1046A000746820636865636B73756D2C204C61734F
:1046B00074204C696E653A20004E6F204368656334
:1046C0006B73756D2077697468206C696E65206EF8
:1046D000756D6265722C204C617374204C696E6537
:1046E0003A2000636865636B73756D206D69736D47
:1046F000617463682C204C617374204C696E653A58
:1047000020004C696E65204E756D6265722069737C
:10471000206E6F74204C617374204C696E65204E5E
:10472000756D6265722B312C204C617374204C695D
:104730006E653A20004D3131300024F4D43050C33E
:104740008E20C2A24017828B7011127A910D816C5B
:10475000D90AA861E108C7586607615143061E4B94
:104760005D05C145A7041A411104093D980371393B
:1047700031034036DB0265339102D4305402802E7F
:104780001D02632CEE01752AC501B028A001102777
:1047900081018F2564012B244B01E0223401AC21DF
:1047A0001F018D200D01801FFC00841EED00971D50
:1047B000DF00B81CD200E61BC600201BBC00641A38
:1047C000B200B219A8000A19A0006A189900D117FE
:1047D000910040178B00B516840031167E00B3158A
:1047E00079003A157300C7146F0058146A00EE136D
:1047F00066008813630025135E00C7125B006C120D
:10480000570015125400C111510070114F002111B1
:104810004B00D61049008D1047004610440002108E
:104820004200C00F4000800F3E00420F3C00060FC8
:104830003B00CB0E3800930E37005C0E3500270E80
:104840003400F30D3200C10D3100900D3000600DC9
:104850002E00320D2D00050D2C00D90C2B00AE0CB6
:104860002900850C29005C0C2700350C27000E0C54
:104870002600E80B2400C40B2400A00B23007D0BB2
:1048800023005A0B2100390B2100180B2000F80AD5
:104890001F00D90A1E00BB0A1E009D0A1D00800AC7
:1048A0001D00630A1C00470A1B002C0A1B00110A8A
:1048B0001A00F7091A00DD091900C4091900AB092B
:1048C0001900920917007B091800630917004C09A9
:1048D000160036091600200916000A091500F50809
:1048E0001500E0081400CC081400B8081400A4084F
:1048F0001400900813007D0812006B08130058087C
:104900001200460812003408110023081100120892
:10491000110001081100F0071000E0071000D00797
:104920001000C0071000B0070F00A107100091078A
:104930000E0083070F0074070F0065070E0057076E
:104940000E0049070E003B070D002E070E00200742
:104950000D0013070D0006070D00F9060C00ED060B
:104960000D00E0060C00D4060C00C8060C00BC06C6
:104970000C00B0060C00A4060B0099060C008D0676
:104980000B0082060B0077060B006C060B0061061D
:104990000A0057060B004C060A0042060A003806B9
:1049A0000A002E060A0024060A001A060A0010064B
:1049B000090007060A00FD050900F4050900EB05DA
:1049C0000900E2050900D9050900D0050900C7055D
:1049D0000900BE050900B5050800AD050800A505DC
:1049E00009009C050800940508008C050800840552
:1049F00008007C050800740508006C0507006505C3
:104A000008005D050700560508004E05070047052C
:104A100007004005080038050700310507002A0592
:104A20000700230507001C050600160507000F05F3
:104A300007000805060002050700FB040600F50450
:104A40000700EE040600E8040600E2040700DB04A9
:104A50000600D5040600CF040600C9040600C304FE
:104A60000600BD040600B7040600B1040500AC044E
:104A70000600A6040600A00405009B040600950499
:104A80000500900406008A040500850405008004E2
:104A900006007A04050075040500700405006B0427
:104AA000050066040500610405005C040500570468
:104AB0000500520405004D040500480405004304A8
:104AC00005003E0404003A040500350405003004E6
:104AD00004002C04050027040400230405001E0420
:104AE00004001A04040016040500110404000D0457
:104AF0000400090405000404040000040400FC038D
:104B00000400F8030400F4030400F0030400EC03C1
:104B10000400E8030400E4030400E0030400DC03F1
:104B20000400D8030400D4030400D0030400CC0321
:104B30000400C8030300C503030024F404D9201BA8
:104B4000C40C5C0E9804C4095F0265077101F4058A
:104B5000F900FB04B30048048700C103690058034F
:104B6000550003034500BE023A008402310053029F
:104B70002A002902250004022000E4011C00C801CB
:104B80001900AF011700980114008401130071018E
:104B900010006101100051010E0043010D003601AB
:104BA0000B002B010B0020010B00150109000C016B
:104BB000090003010800FB000800F3000800EB00F7
:104BC0000700E4000600DE000600D8000600D20060
:104BD0000600CC000500C7000500C2000500BD00AE
:104BE0000400B9000400B5000400B1000400AD00E9
:104BF0000400A9000400A5000300A20003009F0018
:104C000004009B000300980003009500020093003D
:104C10000300900003008D0002008B000300880059
:104C200002008600020084000300810002007F0071
:104C300002007D0002007B00020079000200770084
:104C40000100760002007400020072000100710091
:104C500002006F0002006D0001006C0002006A009B
:104C600001006900020067000100660001006500A4
:104C700001006400020062000100610001006000A8
:104C800001005F0002005D0001005C0001005B00AC
:104C900001005A00010059000100580001005700AE
:104CA00001005600010055000100540001005300AE
:104CB00000005300010052000100510001005000AB
:104CC00001004F0001004E0000004E0001004D00A9
:104CD00001004C0001004B0000004B0001004A00A5
:104CE00001004900010048000000480001004700A1
:104CF000010046000000460001004500000045009C
:104D00000100440001004300000043000100420094
:104D1000000042000100410000004100010040008D
:104D200001003F0000003F0001003E0000003E0087
:104D300001003D0000003D0001003C0000003C007F
:104D400000003C0001003B0000003B0001003A0075
:104D500000003A000100390000003900010038006D
:104D60000000380000003800010037000000370064
:104D7000010036000000360000003600010035005A
:104D80000000350000003500010034000000340050
:104D90000000340001003300000033000000330045
:104DA000010032000000320000003200010031003A
:104DB0000000310000003100010030000000300030
:104DC0000000300001002F0000002F0000002F0025
:104DD00000002F0001002E0000002E0000002E0019
:104DE00001002D0000002D0000002D0000002D000E
:104DF00001002C0000002C0000002C0000002C0002
:104E000001002B0000002B0000002B0000002B00F5
:104E100001002A0000002A0000002A0000002A00E9
:104E200001002900000029000000290000002900DD
:104E300000002900010028000000280000002800D0
:104E400000002800000028000100270000002700C3
:104E500000002700000027000000270001002600B6
:104E600000002600000026000000260000002600AA
:104E7000010025000000250000002500000025009D
:104E8000000025000000250001002400000024008F
:104E90000000240000002400000024000100230082
:104EA0000000230000002300000023000000230076
:104EB0000000230000002300010022000000220067
:104EC000000022000000220000002200000022005A
:104ED000010021000000210000002100000021004D
:104EE000000021000000210000002100010020003E
:104EF0000000200000002000000020000000200032
:104F000000002000000020000000200001001F0021
:104F100000001F0000001F0000001F0000001F0015
:104F200000001F0000001F0001001E0000001E0006
:104F300000001E0000001E0000004D3834205820E4
:104F400059205A20450048617264636F646564208B
:104F500044656661756C742053657474696E67731B
:104F6000204C6F616465640020204D323030204455
:104F7000300020204D3230302044002044697361DD
:104F8000626C65640046696C616D656E7420736562
:104F90007474696E67733A00204C0020430020440B
:104FA0000020490020204D3330312050005049442A
:104FB0002073657474696E67733A0020460020425E
:104FC0000020204D313435204D312048002046004E
:104FD00020420020204D313435204D302048004DF6
:104FE0006174657269616C206865617475702070A8
:104FF0006172616D65746572733A00205A002059C0
:105000000020204D323036205800486F6D65206FEB
:10501000666673657420286D6D293A00204500206E
:105020005A0020580020420020540020204D3230E9
:1050300035205300416476616E6365642076617249
:105040006961626C65733A20533D4D696E206665F7
:1050500065647261746520286D6D2F73292C20544E
:105060003D4D696E2074726176656C20666565647D
:105070007261746520286D6D2F73292C20423D6D5F
:10508000696E696D756D207365676D656E742074EA
:10509000696D6520286D73292C20583D6D617869F4
:1050A0006D756D205859206A65726B20286D6D2FC3
:1050B00073292C20205A3D6D6178696D756D205AD9
:1050C000206A65726B20286D6D2F73292C20204576
:1050D0003D6D6178696D756D2045206A65726B2044
:1050E000286D6D2F73290020540020520020204D80
:1050F000323034205000416363656C6572617469BD
:105100006F6E733A20503D7072696E74696E672CD1
:1051100020523D7265747261637420616E64205424
:105120003D74726176656C00204500205A0020595C
:105130000020204D3230312058004D6178696D7566
:105140006D20416363656C65726174696F6E2028C0
:105150006D6D2F7332293A00204500205A002059E6
:105160000020204D3230332058004D6178696D7534
:105170006D2066656564726174657320286D6D2F9E
:1051800073293A00204500205A0020590020204D64
:105190003932205800537465707320706572207521
:1051A0006E69743A000920000920002D2D2D2E2D46
:1051B0002D002D2D2D002D2D2D002D2D2D002D2DD3
:1051C0003A2D2D003DF00238F000000000000000F4
:1051D000003FFFF04488064510000000000000007A
:1051E00000380070808802450000000000000000C8
:1051F0000030FC3080F0024480000000000000001D
:105200000020FC1080A3F2446000000000000000B9
:105210000020781080900244100000000000000080
:1052200000203010809002441000000000000000B8
:10523000002C00D044880245101FE00000104100FF
:10524000002E31D039CC0739E03FF0000008208033
:10525000002F7BD000000000003FF00000082080FD
:10526000002F7BD0003870E0003FF00000104100BC
:10527000002E31D000448910001FE0000020820081
:10528000002C00D000048910001FE0000041040041
:105290000020301000188910003FF0000041040089
:1052A0000020781000048910003FF00000208200E8
:1052B0000020FC1000048910003FF00000104100A5
:1052C0000030FC3000048910000FC0000000000016
:1052D00000380070004489100007800000FFFFC004
:1052E000003FFFF0003870E00003000000FFFFC047
:1052F000000000003DF00238F00000000000000057
:10530000003FFFF044880645100000000000000048
:105310000038007080880245000000000000000096
:105320000033873080F0024480000000000000005D
:105330000027879080A3F244600000000000000076
:10534000002F87D080900244100000000000000071
:10535000002F87D080900244100000000000000061
:10536000002F03D044880245101FE0000008208071
:105370000020301039CC0739E03FF0000004104025
:105380000020781000000000003FF00000041040F2
:1053900000207810003870E0003FF0000008208006
:1053A0000020301000448910001FE0000010410070
:1053B000002F03D000048910001FE00000208200AD
:1053C000002F87D000188910003FF00000208200D5
:1053D000002F87D000048910003FF000001041002A
:1053E0000027879000048910003FF000000820800B
:1053F0000033873000048910000FC0000000000057
:1054000000380070004489100007800000FFFFC0D2
:10541000003FFFF0003870E00003000000FFFFC015
:1054200000000000473238205830205930002074E6
:105430006F6F206C6F6E6720657874727573696F1B
:105440006E2070726576656E7465640020636F6CA3
:105450006420657874727573696F6E2070726576FA
:10546000656E7465640043616E6E6F7420656E7462
:105470006572207375626469723A200052657365C3
:105480006E643A20006F6B0048656174696E672036
:105490006661696C65640048656174696E67206661
:1054A00061696C6564004B494C4C45442E20004BAF
:1054B000494C4C45442E20005072696E7465722030
:1054C00068616C7465642E206B696C6C282920639C
:1054D000616C6C65642100D2B2DD00AEAFB0004DEE
:1054E00061696E004D3234004D3233202573000265
:1054F0002E2E000152656672657368004D61696EFB
:105500000000D9DB7BDC11241FBECFEFD1E2DEBF70
:10551000CDBF00E00CBF16E0A0E0B2E0E2ECF8ED99
:1055200001E00BBF02C007900D92AE39B107D9F769
:105530002DE1AEE9B6E001C01D92AC34B207E1F74F
:105540001AE2C2E8DAE200E006C021970109802FE2
:10555000FE010E94B6EBC138D10780E00807A9F729
:105560000E945ECC0C9450EC0C9400002F923F9261
:105570004F925F926F927F928F929F92AF92BF9263
:10558000CF92DF92EF92FF920F931F93CF93DF930F
:10559000CDB7DEB7C556D1090FB6F894DEBF0FBE42
:1055A000CDBF2091EE0B3091EF0B40E6429FC00142
:1055B000439F900D11248259954F9093A906809393
:1055C000A8068091AB0280FF22C0E0E8FBE0849156
:1055D000882341F09091C00095FFFCCF8093C600D6
:1055E0003196F5CFE091A806F091A9068191882324
:1055F00039F09091C00095FFFCCF8093C600F6CFA4
:105600008091C00085FFFCCF8AE08093C600209186
:10561000A8063091A906F90180812F5F3F4F8032A3
:10562000D1F3F093A906E093A8068E3461F00091BF
:10563000A8061091A9066AE270E0C8010E9418EC61
:105640000097D1F420C0818190ED980F9A3010F02E
:105650008D3269F73296DF0131962C9120532A3032
:10566000D0F3CD01FC01019620812032D9F3F093D3
:10567000A906E093A806DBCFFC0131968291803227
:1056800081F08A3271F0D8012C9111968C9180535F
:105690008A3010F00C94A9401093A6060093A5063A
:1056A00002C01082EBCFE091A506F091A6068081A2
:1056B0008F7D31F03196F093A606E093A506F3CFE7
:1056C000E091A506F091A6068081803231F43196F2
:1056D000F093A606E093A506F3CF1093A4060093DB
:1056E000A306A6962FAFA6970E942E428C01A696DF
:1056F0002FADA6972D3409F493C4243511F40C94DE
:105700009B3E273411F00C94A9408430910509F494
:105710007AC45CF497FF02C00C942C3F809176020F
:10572000023011050CF00CC11AC08A35910509F43C
:105730006EC444F44C9711F00C942C3F0E947144B9
:105740000C942C3F8B35910509F465C48C3591057B
:1057500011F00C942C3F0E9464420C942C3F88233F
:1057600011F40C942C3F0E94D74282E196E10E94F2
:10577000B1C80E9466448091AB0283FD96C0C09080
:105780001E16D0901F16E0902016F0902116209142
:105790000A1C30910B1C40910C1C50910D1CC70130
:1057A000B6010E9413E84B015C0120E030E0A90142
:1057B0000E942AE2882309F478C02091A702309140
:1057C000A8024091A9025091AA026091E31B709136
:1057D000E41B8091E51B9091E61B0E942AE287FF63
:1057E00029C0C0920A1CD0920B1CE0920C1CF092B3
:1057F0000D1CE0E8FBE08491882341F09091C0000B
:1058000095FFFCCF8093C6003196F5CFE5EEF2E030
:105810008491882341F09091C00095FFFCCF809344
:10582000C6003196F5CF8091C00085FFFCCF8AE09D
:105830008093C600C501B4010E9473E997FF07C0B9
:1058400090958095709561957F4F8F4F9F4F6D36E6
:105850007240810591054CF1C0920A1CD0920B1C3C
:10586000E0920C1CF0920D1CE0E8FBE08491882390
:1058700041F09091C00095FFFCCF8093C600319617
:10588000F5CFE7ECF2E08491882341F09091C000DD
:1058900095FFFCCF8093C6003196F5CF8091C00074
:1058A00085FFFCCF8AE08093C600209112163091CC
:1058B000131640911416509115166091FE1B7091AD
:1058C000FF1B8091001C9091011C0E942AE2811113
:1058D00017C0209116163091171640911816509146
:1058E00019166091021C7091031C8091041C909108
:1058F000051C0E942AE2811103C00E940C421CC0B8
:1059000060916B0270916C02072E000C880B990B52
:105910000E9430E220911D0230911E0240911F0230
:10592000509120020E94F8DD20E030E048EC52E483
:105930000E9402E90E94EE410E94FD400C942C3F1F
:10594000882311F40C942C3F0E94D74289E40E94D2
:105950001B42882329F00E943B426B017C0103C05B
:10596000C12CD12C76018AE40E941B42882349F085
:105970000E943B4229966CAF7DAF8EAF9FAF2997B7
:1059800006C029961CAE1DAE1EAE1FAE29972996E5
:105990002CAD3DAD4EAD5FAD2997C701B6010E945C
:1059A00070EA65966CAF7DAF8EAF9FAF6597409004
:1059B000FE1B5090FF1B6090001C7090011C49AAB8
:1059C0005AAA6BAA7CAAA7019601C301B2010E9440
:1059D00014E8A1966CAF7DAF8EAF9FAFA1974090BA
:1059E000021C5090031C6090041C7090051C4DAA72
:1059F0005EAA6FAA78AE29962CAD3DAD4EAD5FADD7
:105A00002997C301B2010E9414E8A5966CAF7DAF3F
:105A10008EAF9FAFA5974090061C5090071C6090DA
:105A2000081C7090091C21964CAE5DAE6EAE7FAE28
:105A30002197A301920160911A1670911B16809113
:105A40001C1690911D160E9413E825966CAF7DAF31
:105A50008EAF9FAF259740900A1C50900B1C609012
:105A60000C1C70900D1C2D964CAE5DAE6EAE7FAED4
:105A70002D97A301920160911E1670911F168091BF
:105A80002016909121160E9413E869966CAF7DAFA5
:105A90008EAF9FAF6997A701960150582DA73EA7DB
:105AA0004FA758AB29964CAC5DAC6EAC7FAC299738
:105AB00077FA709477F8709480911216909113167B
:105AC000A0911416B091151689AF9AAFABAFBCAFC9
:105AD000A1962CAD3DAD4EAD5FADA197BC01CD0102
:105AE0000E9413E86B017C01209116163091171665
:105AF000409118165091191661962CAF3DAF4EAFDC
:105B00005FAF6197A5962CAD3DAD4EAD5FADA5974E
:105B100061966CAD7DAD8EAD9FAD61970E9413E82F
:105B20004B015C01A70196016DA57EA58FA598A9E3
:105B30000E94F8DD6D966CAF7DAF8EAF9FAF6D9715
:105B4000A5019401C301B2010E94F8DD9B01AC01E3
:105B50006D966CAD7DAD8EAD9FAD6D970E9414E8D6
:105B60006D966CAF7DAF8EAF9FAF6D97A501940121
:105B70006DA57EA58FA598A90E94F8DD4B015C015B
:105B8000A7019601C301B2010E94F8DD9B01AC019F
:105B9000C501B4010E9413E86D962CAD3DAD4EAD2C
:105BA0005FAD6D970E9492E86B017C0120E030E0D0
:105BB000A9010E942AE287FF0AC02BED3FE049ECD1
:105BC00050E4C701B6010E9414E86B017C01023069
:105BD000110551F42BED3FE049EC50E4C701B6014B
:105BE0000E9413E86B017C0129AD3AAD4BAD5CAD71
:105BF00069A97AA98BA99CA90E942AE2811121C0D6
:105C000061962CAD3DAD4EAD5FAD61976DA97EA99E
:105C10008FA998AD0E942AE2811113C020E030E0E4
:105C2000A901C701B6010E942AE281110AC02BED29
:105C30003FE049EC50E4C701B6010E9414E86B0153
:105C40007C0165962CAD3DAD4EAD5FAD6597C7014E
:105C5000B6010E94F8DD25962CAD3DAD4EAD5FAD91
:105C600025975F770E9470EA4B015C012FE632E1D5
:105C700043E85AE30E942AE287FDC1C1C501B4018D
:105C80000E94A8E90E9479E97AAF69AF672B21F4F5
:105C900081E090E09AAF89AFA9ADBAADBD0180E0D7
:105CA00090E00E942EE24B015C019B01AC01C70118
:105CB000B6010E9402E969AB7AAB8BAB9CABA50144
:105CC000940125966CAD7DAD8EAD9FAD25970E945C
:105CD00002E965966CAF7DAF8EAF9FAF6597A5016A
:105CE000940169966CAD7DAD8EAD9FAD69970E94B4
:105CF00002E969966CAF7DAF8EAF9FAF699720E0E8
:105D000030E040E05FE369A97AA98BA99CA90E94D1
:105D1000F8DD29A93AA94BA95CA90E94F8DD9B01ED
:105D2000AC0160E070E080E89FE30E9413E86196B8
:105D30006CAF7DAF8EAF9FAF619721962CAD3DAD1F
:105D40004EAD5FAD219729873A874B875C872D96AB
:105D50008CAD9DADAEADBFAD2D978D879E87AF87C6
:105D6000B88B60916B0270916C02072E000C880B4F
:105D7000990B0E9430E220911D0230911E02409149
:105D80001F02509120020E94F8DD20E030E040E741
:105D900052E40E9402E920E030E048EC52E40E9424
:105DA00002E92D966CAF7DAF8EAF9FAF2D979DA56D
:105DB0009DAB2EA43FA4D8A81DAEA1E0B0E02396D1
:105DC000BFAFAEAF239723964EAD5FAD239789AD9E
:105DD0009AAD4817590709F4FFC0BDADB9310CF0B1
:105DE00044C061962CAD3DAD4EAD5FAD6197C30132
:105DF000B2010E94F8DD4B015C0129A93AA94BA927
:105E00005CA96DA9722D832D9D2D0E94F8DDA50141
:105E100094010E9414E87B018C0161962CAD3DAD8C
:105E20004EAD5FAD61976DA9722D832D9D2D0E94A2
:105E3000F8DD4B015C0129A93AA94BA95CA9C30172
:105E4000B2010E94F8DD9B01AC01C501B4010E94C2
:105E500013E86DAB272E382ED92EEDADEF5FEDAFE9
:105E6000C701D8012C013D0156C023964EAC5FAC52
:105E70002397B20180E090E00E942EE229A93AA97E
